:020000040800F2
:10000000C8870020B109000831070008330700083D
:10001000370700083B0700083F0700080000000002
:10002000000000000000000000000000430700087E
:1000300045070008000000004707000849070008BE
:10004000CB090008CB090008CB090008CB09000840
:10005000CB090008CB090008CB090008CB09000830
:10006000CB090008CB090008CB090008CB09000820
:10007000CB090008CB090008CB090008CB09000810
:10008000CB090008CB090008CB090008CB09000800
:10009000CB090008CB090008CB0900084B07000872
:1000A000CB090008CB090008CB090008CB090008E0
:1000B000CB09000821430008CB090008CB09000840
:1000C000CB090008CB090008CB090008CB090008C0
:1000D000CB0900081F280008CB090008CB0900083D
:1000E000CB090008CB090008CB090008CB090008A0
:1000F000CB090008CB090008CB090008CB09000890
:10010000CB090008CB090008CB090008CB0900087F
:10011000CB090008CB090008CB090008CB0900086F
:10012000CB090008CB090008CB090008CB0900085F
:10013000CB090008CB090008CB090008CB0900084F
:10014000CB090008CB090008CB090008CB0900083F
:10015000CB090008CB090008CB090008CB0900082F
:10016000CB090008CB090008CB090008CB0900081F
:10017000CB090008CB090008CB090008CB0900080F
:10018000CB090008CB09000800F002F800F03CF8A9
:100190000AA090E8000C82448344AAF10107DA45E2
:1001A00001D100F031F8AFF2090EBAE80F0013F0F8
:1001B000010F18BFFB1A43F0010318478C600000C1
:1001C000AC600000103A24BF78C878C1FAD8520752
:1001D00024BF30C830C144BF04680C6070470000C1
:1001E0000023002400250026103A28BF78C1FBD840
:1001F000520728BF30C148BF0B6070471FB504F0DD
:1002000079FC1FBD10B510BD04F042FC1146FFF78C
:10021000F5FF00F0D8F904F060FC03B4FFF7F2FF3B
:1002200003BC02F09DFA0000F8B5FD4800780028F4
:100230007ED0FC484088401E83B2FA480088401EA9
:1002400082B20021084602F071FB02F056FB00204A
:10025000F54908602020F549488308834883012038
:10026000F349C1F890022020F0490883002441E0BE
:100270002020EE494883EF480068C0F38310ED4921
:10028000096801F4006140EAD110EB49096801F006
:1002900040014908E94A126902F0600241EA42015C
:1002A00040EA01052020E14908834883E1480068CD
:1002B000C0F38310DF49096801F4006140EAD110FE
:1002C000DD49096801F040014908DC4A126902F081
:1002D000600241EA420140EA01062020D349088336
:1002E00046EA0520D64921F8140031F8140002F03E
:1002F0000AFB641C43F6FF708442B9DBD149D24843
:1003000004F076FA00287DD04FF47840CD4F00906D
:10031000BF88DFF830C3DCF80CC0A7EB5C077F1C9C
:10032000BBB2C84F3F88DFF81CC3DCF808C000E050
:10033000C0E007EB5C07BAB2C24FBF88DFF804C366
:10034000DCF80CC0A7EB5C07B9B2BE4F3F88DFF802
:10035000F4C2DCF808C0A7EB5C07B8B202F02CFDD1
:100360004FF47840B74F0090BF88DFF8D8C2DCF870
:100370000CC007EB5C07BBB2B24F3F88DFF8C4C2CA
:10038000DCF808C0A7EB5C077F1CBAB2AD4FBF8892
:10039000DFF8B0C2DCF80CC0A7EB5C07B9B2A94F1C
:1003A0003F88DFF8A0C2DCF808C0A7EB5C07B8B252
:1003B00002F002FD4FF47840A24F0090BF88DFF8B2
:1003C00084C2DCF80CC007EB5C077F1CBBB29D4FFE
:1003D0003F88DFF870C2DCF808C007EB5C07BAB2F0
:1003E000984FBF88DFF85CC2DCF80CC007EB5C07F5
:1003F000B9B2944F3F88DFF84CC2DCF808C0A7EBD5
:100400005C0700E049E0B8B202F0D6FC4FF4784057
:100410008C4F0090BF88DFF82CC2DCF80CC007EBD3
:100420005C07BBB2874F3F88DFF818C2DCF808C012
:1004300007EB5C077F1CBAB2824FBF88DFF804C2AB
:10044000DCF80CC0A7EB5C07B9B27E4F3F88DFF841
:10045000F4C1DCF808C007EB5C07B8B202F0ACFCF2
:100460004FF47840774F0090BF88BF1CBBB2754FE8
:100470003F88BF1CBAB2734FBF88BF1EB9B2714F5D
:100480003F88BF1EB8B202F097FC6E4800886F49E3
:1004900008806C4880886E49088000206049087098
:1004A00061480C30006808B9012000E000205E4976
:1004B0000C310860F8BD10B5FFF7B6FE6348008840
:1004C00035281CDC16E0634800680F386149086075
:1004D00008460068B0F5FA7F02D84FF4FA70086059
:1004E0005C4801685C4801F050FA3F205749088099
:1004F000FFF79AFE554800883528E4DB10BD5348C5
:10050000008849281DDB17E0524800680F30514928
:1005100008600846006840F6C411884202D30846C5
:100520004C4908604B4801684B4801F02EFA3F20C7
:1005300046490880FFF778FE444800884928E3DCF4
:10054000DCE700BFDAE710B5FFF76EFE40F2DC51E2
:10055000414801F01AFA0A2002F0E2F832E03F487E
:10056000007868B13B4800680A383A490860084694
:100570000068B0F5FA7F11D80020384908700DE006
:10058000344800680A30334908600846006840F67D
:10059000C411884202D30120304908702D480168F7
:1005A0002D4801F0F2F9002028490880FFF73CFEB1
:1005B000012002F0B5F82548008818B1012028492B
:1005C000087010BDCBE708B54FF4A06000F010FA3A
:1005D000A82002F043F84FF4E13002F0CEF803F027
:1005E00011FA02F094FA532144F61F6004F076F9F0
:1005F0003BE0C82002F094F84FF47840009009489E
:10060000438802880021084602F0D6FBC82002F089
:1006100087F805480830006808B9012023E021E088
:1006200027000020540100209002404200000240B8
:100630000000404210080240100402400010024036
:10064000640100207C000020040000201C00002029
:100650001E0000202000002000180040260000207E
:100660002500002000202C49086003F0E9F900284B
:10067000BFD14FF47A7002F053F84FF6FF7000903C
:100680002648438802880021084602F095FB03F0C3
:10069000FEFA42F2CF0140F2CF7003F015FE04F0F3
:1006A0006DF900228021084603F03CFA00201C4925
:1006B000086001201B4908702DE0012004F073F947
:1006C0001949087008460078002803DD08460078BC
:1006D00014490870FFF7A8FD14480068401C13492E
:1006E000086010480078022802D1FFF72CFF02E0D2
:1006F000FFF7E1FE00BF00BF0C48006864280AD184
:1007000000200A4908600448006808B9012000E098
:10071000002001490860D0E79802404254010020BF
:10072000BC82404225000020240000200000002060
:10073000704700BFFEE700BFFEE700BFFEE700BF57
:10074000FEE7704770477047704710B54FF48070F0
:1007500001F070FF012818D100200E4908600A201E
:1007600001F096FF01200C49C1F89C020A2001F01B
:100770008FFF01200749083108600A2001F088FF37
:1007800006480078401C054908704FF4807001F05D
:100790005CFF10BD9C824042008040422700002048
:1007A0000CB50020019000907648006840F480303D
:1007B0007449086000BF7348006800F4003000907E
:1007C0000198401C0190009818B90198B0F5A04F0D
:1007D000F1D16C48006800F4003010B101200090A5
:1007E00001E0002000900098012846D16548403083
:1007F000006840F0805063494031086062480068FA
:1008000040F44040604908605E48083000685D4937
:10081000083108600846006840F400400860084657
:10082000006840F4A05008605848091F0860081F7D
:10083000006840F08070091F086000BF51480068E0
:1008400000F000700028F9D040F2057050490860AF
:100850004C480830006820F003004A49083108601D
:100860000846006840F00200086000BF45480830B4
:10087000006800F00C000828F8D10CBD10B5454800
:10088000006840F47000434908603E48006840F04A
:1008900001003C49086000203A49083108603948A5
:1008A00000683D490840374908603C48091D086018
:1008B000081F006820F48020091F086000203149CB
:1008C0000C310860FFF76CFF4FF000603149803950
:1008D000086010BD70B50020002202230024022110
:1008E000284D08352D6805F00C0020B1042806D0ED
:1008F000082834D107E02A4D2A4E356033E02A4DCE
:10090000284E35602FE01F4D2D1D2D68C5F38054F6
:100910001C4D2D1D2D6805F03F0154B1224DB5FB36
:10092000F1F5184E361D3668C6F3881605FB06F23B
:1009300009E01B4DB5FBF1F5124E361D3668C6F3C6
:10094000881605FB06F20F4D2D1D2D68C5F30145D8
:100950006D1C6B00B2FBF3F5124E356003E0104DD9
:10096000104E356000BF00BF064D08352D68C5F339
:1009700003150E4E705D0B4D2D68C540094E356058
:1009800070BD00000038024000700040085440076D
:10099000003C024088ED00E0FFFFF6FE103000242E
:1009A0000024F4002800002000127A002C0000200F
:1009B0000948804709480047FEE7FEE7FEE7FEE7F3
:1009C000FEE7FEE7FEE7FEE7FEE7FEE7044805492F
:1009D000054A064B704700007D08000889010008A1
:1009E000C8810020C8870020C8830020C883002059
:1009F00032490143324A1160704770B5002100232B
:100A00000F22C4781CB32E4C246804F4E064C4F5AF
:100A1000E064C4F30721C1F10404E3B20A4144785D
:100A20009C40E1B28478144021430C07210E254CF0
:100A300005786155047804F01F050124AC40057861
:100A40006D11AD0005F1E025C5F8004109E004781D
:100A500004F01F050124AC401B4D0678761145F8C3
:100A6000264070BD194A0A400243154B1B1F1A60ED
:100A7000704739B1124A121D12680243104B1B1DF8
:100A80001A6006E00E4A121D126882430C4B1B1DB1
:100A90001A607047042808D14FF0E021096941F03D
:100AA00004014FF0E022116107E04FF0E0210969F5
:100AB00021F004014FF0E022116170470000FA05B7
:100AC0000CED00E000E400E080E100E080FFFF1FAB
:100AD00010B504469848844208D10121084600F028
:100AE00086FB0021012000F082FB76E093488442DF
:100AF00008D10121022000F07AFB0021022000F041
:100B000076FB6AE08E48844208D10121042000F07F
:100B10006EFB0021042000F06AFB5EE089488442FD
:100B200008D10121082000F062FB0021082000F01C
:100B30005EFB52E08448844208D10121102000F07D
:100B400056FB0021102000F052FB46E07F48844213
:100B500008D10121202000F04AFB0021202000F0D4
:100B600046FB3AE07A48844208D10121402000F057
:100B70003EFB0021402000F03AFB2EE07548844205
:100B800008D10121802000F032FB0021802000F0FC
:100B90002EFB22E07048844208D10121801500F02C
:100BA00026FB0021A01500F022FB16E06B488442D2
:100BB00008D10121401500F01AFB0021601500F05A
:100BC00016FB0AE06648844207D10121001500F0B7
:100BD0000EFB0021201500F00AFB10BDF0B50A46FF
:100BE00000210023002400BF3DE0012505FA01F3A8
:100BF000156805EA03049C4234D105684F000326BA
:100C0000BE40B543056015794E00B54006683543D2
:100C100005601579012D02D01579022D16D1856850
:100C20004F000326BE40B543856055794E00B54060
:100C3000866835438560456801268E40B54345602A
:100C4000456896798E40B6B235434560C5684F0019
:100C50000326BE40B543C560D5794E00B540C66891
:100C60003543C560491C1029BFD3F0BD4FF6FF7155
:100C700001600021017141718171C171704708B536
:100C80004FF480320092009A0A430092009AC261A7
:100C9000C161009AC261C2690092C269009208BD36
:100CA0000246002013690B400BB1012000E0002038
:100CB00070470146086980B27047024600205369B8
:100CC0000B400BB1012000E000207047014648694D
:100CD00080B2704701837047418370470AB1018336
:100CE00000E0418370474161704742694A40426178
:100CF0007047F0B5002300244D07ED0E02FA05F30E
:100D0000CE1000F1200555F826504E07F70E0F269D
:100D1000BE40B543CF1000F1200646F82750CE1054
:100D200000F1200555F8265045EA0304CE1000F1E5
:100D3000200545F82640F0BD0000024000040240B6
:100D400000080240000C0240001002400014024063
:100D500000180240001C0240002002400024024013
:100D600000280240F948006840F00100F749086097
:100D70000020F64908310860F4480068F44908404A
:100D8000F2490860F348091D0860F348EF498431CF
:100D90000860F0481038091D0860EC48006820F42D
:100DA0008020EA4908600020E8490C310860E749E2
:100DB0008C31086070470021E44A921C1170114682
:100DC0000870704710B501460022002300204A1128
:100DD000012A02D1DD4C236808E0022A03D1DB4C52
:100DE0007034236802E0D94C7434236801F01F0288
:100DF000012494401C400CB1012000E0002010BDF3
:100E000038B5002000900024002500BF3120FFF7F6
:100E1000D9FF05460098401C00900098B0F5A04FFF
:100E200001D0002DF2D03120FFF7CCFF08B1012412
:100E300000E00024204638BD01460020C34A106867
:100E400020F0F80040EAC10010607047C349086014
:100E500070470021BD4A703211701170012802D014
:100E600004280AD104E00121B84A7032117005E06B
:100E70000521B64A7032117000E000BF00BF704714
:100E8000B7490860704770B5049C41EA8215012695
:100E9000C6EB530645EA0645054345EA0465AB4EF5
:100EA000361D356070BDAD4908667047820142EA63
:100EB0000172A64B84331A607047A8498866704750
:100EC00010B5830143EA016343EA02739F4C8834FF
:100ED000236010BDA14908677047A049C8647047E6
:100EE00002460020994B0833186820F0EC6042EA73
:100EF00001031843954B08331860704702460020E1
:100F0000924B0833186820F0784042EA01031843F6
:100F10008E4B083318607047014600208B4A083218
:100F2000106820F0030008431060704787480830BD
:100F3000006800F00C00704701460020834A083228
:100F4000106820F0F0000843106070470146002050
:100F50007E4A0832106820F4E05008431060704761
:100F600001460020794A0832106820F4604040EAC7
:100F7000C10010607047F0B5002100220024022556
:100F800000260223714F08373F6807F00C0121B19A
:100F9000042905D0082937D105E0724F076036E0F3
:100FA000714F076033E0694F3F1D3F68C7F38056BC
:100FB000664F3F1D3F6807F03F036EB16A4FB7FBB6
:100FC000F3F7DFF888C10CF1040CDCF800C0CCF3B7
:100FD000881C07FB0CF40CE0624FB7FBF3F7DFF85B
:100FE0006CC10CF1040CDCF800C0CCF3881C07FBCE
:100FF0000CF4564F3F1D3F68C7F301477F1C7D002F
:10100000B4FBF5F7076002E0564F076000BF00BF72
:101010004E4F08373F6807F0F0010909534F7A5CDB
:101020000768D7404760494F08373F6807F4E051E9
:10103000890A4E4F7A5C4768D7408760434F08372C
:101040003F6807F46041490B484F7A5C4768D740D6
:10105000C760F0BD002100F44072B2F5407F0AD1B4
:101060003A4A0832116821F4F811414A024011430A
:10107000364A08321160354A70321268C0F30B03E9
:101080001A43324B70331A6070473549443908604F
:1010900070473349403908607047364908607047E7
:1010A00001460020294A8C32106820F01F004A1E99
:1010B0001043264A8C321060704701460020234AB4
:1010C0008C32106820F4F8504A1E40EA02201F4A71
:1010D0008C3210607047014600201C4A8C32106828
:1010E00020F4401008431060704701460020174A62
:1010F0008C32106820F440000843106070470146AD
:101100000020124A8C32106820F4403008431060EE
:10111000704719490860704739B10C4A303212687B
:1011200002430A4B30331A6006E0084A3032126834
:101130008243064B30331A607047F9B1034A3432A8
:1011400012680243014B34331A601CE0003802403D
:10115000FFFFF6EA10300024003000200000474274
:10116000800E47420024F40000127A003C00002068
:10117000FFFCFF0F5C014742E01147428F4A1268B3
:1011800082438E4B1A60704739B18C4A121D126827
:1011900002438A4B1B1D1A6006E0884A121D126822
:1011A0008243864B1B1D1A60704739B1834A0C324B
:1011B00012680243814B0C331A6006E07F4A0C32FE
:1011C000126882437D4B0C331A60704739B17B4AF9
:1011D000103212680243794B10331A6006E0774AE6
:1011E000103212688243754B10331A60704739B160
:1011F000724A243A12680243704B243B1A6006E09C
:101200006E4A243A126882436C4B243B1A60704742
:1012100039B16A4A203A12680243684B203B1A608F
:1012200006E0664A203A12688243644B203B1A600B
:10123000704739B1614A1C3A126802435F4B1C3B4C
:101240001A6006E05D4A1C3A126882435B4B1C3B05
:101250001A60704739B1594A143A12680243574B21
:10126000143B1A6006E0554A143A12688243534B05
:10127000143B1A60704739B1504A103A1268024361
:101280004E4B103B1A6006E04C4A103A12688243FB
:101290004A4B103B1A60704739B1484A1C321268F9
:1012A0000243464B1C331A6006E0444A1C32126863
:1012B0008243424B1C331A60704739B13F4A203297
:1012C000126802433D4B20331A6006E03B4A20324D
:1012D00012688243394B20331A60704739B1374A5C
:1012E000243212680243354B24331A6006E0334A35
:1012F000243212688243314B24331A60704739B16B
:101300002E4A2C32126802432C4B2C331A6006E012
:101310002A4A2C3212688243284B2C331A607047B9
:1013200039B1264A303212680243244B30331A60F6
:1013300006E0224A303212688243204B30331A6072
:101340007047012808D11D493C31096841F0080166
:101350001A4A3C32116007E018493C31096821F013
:101360000801164A3C321160704739B1134A273AD6
:1013700012780243114B273B1A7006E00F4A273AB6
:10138000127882430D4B273B1A7070470B48403050
:10139000006840F08070094940310860704701469C
:1013A0000020064A283A12680A400AB1012000E0EB
:1013B00000207047014926390870704734380240D0
:1013C00010B501218803FFF756FF00214FF480403C
:1013D000FFF751FF10BD1C49086070471B490862A8
:1013E000704730B500228B071C0F0F2303FA04F25D
:1013F000154B08338C1053F824309343124C0834A7
:101400008D1044F8253023468C1053F824308C0777
:10141000240F00FA04F423430B4C08348D1044F8D5
:10142000253030BD0949DC31086070470849086043
:101430007047002004492031096801F4807109B126
:10144000012000E0002070470038014000002742E2
:101450000004274210B50446FE48844208D1012109
:101460000846FFF708FF00210120FFF704FF9DE079
:10147000B4F1804F08D101210846FFF7EBFE0021AF
:101480000120FFF7E7FE91E0F348844208D10121F3
:101490000220FFF7DFFE00210220FFF7DBFE85E0E0
:1014A000EE48844208D101210420FFF7D3FE002139
:1014B0000420FFF7CFFE79E0E948844208D10121FA
:1014C0000820FFF7C7FE00210820FFF7C3FE6DE0EC
:1014D000E448844208D101211020FFF7BBFE00211F
:1014E0001020FFF7B7FE61E0DF48844208D10121F8
:1014F0002020FFF7AFFE00212020FFF7ABFE55E0D4
:10150000DA48844208D101210220FFF7B4FE00210D
:101510000220FFF7B0FE49E0D548844209D10121FD
:101520000804FFF7A8FE00214FF48030FFF7A3FE68
:101530003CE0D048844209D101214804FFF79BFEDA
:1015400000214FF40030FFF796FE2FE0CA48844296
:1015500009D101218804FFF78EFE00214FF480207D
:10156000FFF789FE22E0C548844208D101214020CE
:10157000FFF770FE00214020FFF76CFE16E0C04828
:10158000844208D101218020FFF764FE00218020E1
:10159000FFF760FE0AE0BB48844207D101218015B5
:1015A000FFF758FE0021A015FFF754FE10BD0022E2
:1015B0000288A84B98420ED0AC4B98420BD0B0F1A9
:1015C000804F08D0A44B984205D0A44B984202D03B
:1015D000A34B984204D14FF68F731A404B881A439D
:1015E000A04B984207D0A04B984204D04FF6FF433F
:1015F0001A400B891A4302804B68C3620B8803852B
:10160000944B984202D0994B984201D18B7A038631
:101610000123838270474FF0FF3141600021018038
:1016200001814180817270470185828270470A463C
:10163000002101884FF68F731940114301807047D4
:1016400041627047C16270470146486A704701466F
:10165000088D704721B1028842F00202028004E046
:1016600002884FF6FD731A400280704721B102884C
:1016700042F00402028004E002884FF6FB731A4035
:101680000280704721B1028842F08002028004E0AB
:1016900002884FF67F731A400280704702884FF627
:1016A000F7731A40028002880A430280704702885A
:1016B0004FF6FF431A40028002880A4302807047B7
:1016C00021B1028842F00102028004E002884FF654
:1016D000FE731A400280704770B500240022002378
:1016E000058C4FF6FE7635400584028C8388048B8A
:1016F0004FF68F752C40B51E2C400D882C43751E5F
:101700002A408D892A434D882A43524DA84202D04F
:10171000564DA84213D14FF6F7752A40CD892A437A
:101720004FF6FB752A408D882A434FF6FF652B4004
:101730004FF6FF552B400D8A2B434D8A2B43838058
:1017400004838D684563028470BD70B50024002257
:101750000023058C4FF6EF7635400584028C838894
:10176000048B48F6FF752C404FF6FF452C400D8842
:101770004FF6FF7606EA05252C434FF6DF752A4023
:101780008D8906EA05152A434D8806EA05152A4380
:10179000304DA84202D0354DA8421DD14FF67F757D
:1017A0002A40CD894FF6FF7606EA05152A434FF603
:1017B000BF752A408D8806EA05152A434FF6FF3586
:1017C0002B404FF2FF752B400D8A06EA85052B430F
:1017D0004D8A06EA85052B43838004838D688563E3
:1017E000028470BD70B5002400220023058C4FF6E2
:1017F000FF6635400584028C8388848B4FF68F7595
:101800002C404FF6FC752C400D882C434FF6FF55AD
:101810002A408D894FF6FF7606EA05252A434D8832
:1018200006EA05252A430B4DA84202D00F4DA842D7
:1018300038D14FF2FF752A40CD894FF6FF7606EA80
:1018400005252A434FF6FF352A408D8806EA0525EF
:101850002A4319E000000140000400400008004055
:10186000000C004000100040001400400004014043
:101870000040014000440140004801400018004081
:10188000001C0040002000404EF6FF752B404DF636
:10189000FF752B400D8A06EA05152B434D8A06EA93
:1018A00005152B43838084838D68C563028470BDD6
:1018B00070B5002200230024058C4EF6FF763540DB
:1018C0000584038C8488828B48F6FF752A404FF686
:1018D000FF452A400D884FF6FF7606EA05252A4384
:1018E0004DF6FF752B408D8906EA05352B434D8853
:1018F00006EA05352B43FE4DA84202D0FD4DA84215
:1019000008D14BF6FF752C400D8A4FF6FF7606EA9C
:1019100085152C43848082838D680564038470BDA3
:10192000002101804180818081608181C1810182AB
:101930004182704770B503460020002418461830D5
:1019400001258D40ACB21D8CA5431D8409B1082929
:101950000AD100EB610005684FF68F7635400560CF
:101960000568154305600FE00D1FC5F34E052844BB
:10197000056848F6FF763540056005684FF6FF7646
:1019800006EA02263543056070BD416370478163F6
:101990007047C1637047016470470A460021018B9C
:1019A0004FF68F7319401143018370470A46002197
:1019B000018B48F6FF7319404FF6FF7303EA0223C9
:1019C0001943018370470A460021818B4FF68F73BC
:1019D00019401143818370470A460021818B48F6E4
:1019E000FF7319404FF6FF7303EA02231943818303
:1019F00070470A460021018B4FF6F77319401143D7
:101A0000018370470A460021018B4FF2FF73194092
:101A10004FF6FF7303EA02231943018370470A4616
:101A20000021818B4FF6F773194011438183704772
:101A30000A460021818B4FF2FF7319404FF6FF7366
:101A400003EA02231943818370470A460021018B70
:101A50004FF6FB7319401143018370470A4600217A
:101A6000018B4FF6FF3319404FF6FF7303EA022351
:101A70001943018370470A460021818B4FF6FB739F
:101A800019401143818370470A460021818B4FF62C
:101A9000FF3319404FF6FF7303EA02231943818392
:101AA00070470A460021018B4FF67F73194011439E
:101AB000018370470A460021018BC1F30E014FF6E6
:101AC000FF7303EA02231943018370470A4600218A
:101AD000818B4FF67F7319401143818370470A460B
:101AE0000021818BC1F30E014FF6FF7303EA02233D
:101AF0001943818370470A460021018C4FF6FD731C
:101B000019401143018470470A460021018C4FF6A9
:101B1000F77319401143018470470A460021018C74
:101B20004FF6DF7319404FF6FF7303EA02131943B0
:101B3000018470470A460021018C4FF67F731940DB
:101B40004FF6FF7303EA02131943018470470A46F4
:101B50000021018C4FF6FF5319404FF6FF7303EA43
:101B600002231943018470470A460021018C4FF279
:101B7000FF7319404FF6FF7303EA022319430184F0
:101B800070470A460021018C4DF6FF7319404FF64D
:101B9000FF7303EA023319430184704730B5002311
:101BA00001248C40A3B2048C9C430484048C02FA6C
:101BB00001F5ADB22C43048430BD30B500230424BC
:101BC0008C40A3B2048C9C430484048C02FA01F57B
:101BD000ADB22C43048430BD828B4FF2FF331A40E8
:101BE0008283828B4FF6FF7303EA01231A438283B9
:101BF0007047F0B50C461546002100220026078CE0
:101C00004EF6FF7C07EA0C070784818B028C4FF6A7
:101C1000FF7707EA043640F6FF4739404FF6FF7773
:101C200007EA052739434FF6FF7707EA03373943B9
:101C300045F6FF773A4046F480573A438183028461
:101C4000F0BD828B4FF6F3731A408283828B0A4376
:101C500082837047F0B50C4615460021002200260D
:101C6000078C4FF6FF6C07EA0C070784818B028C08
:101C70004FF6FF7707EA04264FF60C7739404FF608
:101C8000FF7707EA03172F4339434FF2FF573A40D4
:101C900046F480773A4381830284F0BD028B4FF291
:101CA000FF331A400283028B4FF6FF7303EA0123CE
:101CB0001A4302837047F0B50C46154600210022F6
:101CC0000026078C4FF6EF7C07EA0C070784018B90
:101CD000028C4FF6FF7707EA041640F6FF473940BB
:101CE0004FF6FF7707EA033739434FF6FF7703E0F4
:101CF000000001400004014007EA052739434FF680
:101D00005F773A4046F010073A4301830284F0BD02
:101D1000028B4FF6F3731A400283028B0A4302834D
:101D20007047F0B50C46154600210022068C4FF690
:101D3000FE773E400684018B028C4FF60C763140D4
:101D40007E1C06EA03162E4331434FF6F5763240E9
:101D500044F00106324301830284F0BD70B50546AC
:101D60000C46208850B92389A28861882846FFF74D
:101D7000D8FFE1882846FFF7CBFF25E0208804281C
:101D80000AD12389A28861882846FFF794FFE18859
:101D90002846FFF783FF17E0208808280AD1238907
:101DA000A28861882846FFF755FFE1882846FFF79B
:101DB00048FF09E02389A28861882846FFF719FFB8
:101DC000E1882846FFF708FF70BD002101804180AF
:101DD000012181800021C180018170472DE9F041FE
:101DE00005460C4600260127608808B9022600E057
:101DF0000026A088012801D1022700E001272088C1
:101E0000A0B92389A28861882846FFF78AFFE18864
:101E10002846FFF77DFF23893A4631462846FFF7DB
:101E20004AFFE1882846FFF739FF13E02389A2889B
:101E300061882846FFF73FFFE1882846FFF72EFF1D
:101E400023893A4631462846FFF76BFFE18828464A
:101E5000FFF75EFFBDE8F0810146486B7047014621
:101E6000886B70470146C86B70470146086C704725
:101E70000A884B881A438B881A43CB881A430B89EC
:101E80001A434B891A438B891A43A0F844207047A0
:101E90000021018041808180C18001814181818157
:101EA000704731B1B0F8442042F40042A0F8442019
:101EB00005E0B0F84420C2F30E02A0F844207047B9
:101EC00021B1828842F00402828004E082884FF6C9
:101ED000FB731A408280704721B1828842F0010270
:101EE000828004E082884FF6FE731A408280704739
:101EF0001AB183890B43838102E083898B438381F9
:101F000070478182704702460020138A0B400BB154
:101F1000012000E000207047CA430282704730B5BC
:101F20000246002000230024158A05EA0103958952
:101F300005EA010413B10CB1012000E0002030BD1E
:101F4000CA430282704741EA0203A0F84830704752
:101F50001AB183890B43838102E083898B43838198
:101F6000704721B1828842F00802828004E08288B2
:101F70004FF6F7731A408280704701894FF6F87266
:101F80001140018170470A46002101894FF68F7385
:101F9000194011430181704730B504460D4629466A
:101FA0002046FFF7F0FF208940F00700208130BD78
:101FB0002DE9F04104460D4616461F46602D06D118
:101FC0003B46012231462046FFF775FE05E03B46C1
:101FD000012231462046FFF7A4FE29462046FFF79E
:101FE000D2FF208940F007002081BDE8F08130B5A4
:101FF0000C4600210189C9B24FF6FF7505EA032599
:10200000154325432943018130BD2DE9F0410546A3
:102010000E4617469846002443463A46314628461F
:10202000FFF7E5FF2C894FF6F870044044F00704F1
:102030004FF68F70044044F070042C81BDE8F081AD
:10204000F0B504460D4616461F463B463246294625
:102050002046FFF7CCFF208940F480402081F0BD6E
:1020600082884FF68F731A40828082880A4382806A
:10207000704702894FF6F8731A40028102890A43B9
:102080000281704702894FF67F731A4002810289EC
:102090000A4302817047F0B50C4615461E460021E2
:1020A000002200230189028B038C4FF6F877394018
:1020B00021434FF6FC473A4040F201173A434FF6AE
:1020C000DD773B404FF6FF7707EA06172F433B4388
:1020D000018102830384F0BD21B1828842F0800235
:1020E000828004E082884FF67F731A4082807047B6
:1020F000A0F850107047000010B50446FA4884421A
:1021000008D101211020FFF7B6F800211020FFF7B9
:10211000B2F857E0F548844209D101214804FFF79D
:1021200099F800214FF40030FFF794F84AE0F048A6
:10213000844209D101218804FFF78CF800214FF473
:102140008020FFF787F83DE0EA48844209D1012169
:10215000C804FFF77FF800214FF40020FFF77AF85A
:1021600030E0E548844209D101210805FFF772F803
:1021700000214FF48010FFF76DF823E0DF48844220
:1021800008D101212020FFF776F800212020FFF759
:1021900072F817E0DA48844209D101218807FFF775
:1021A00059F800214FF08040FFF754F80AE0D54875
:1021B000844207D101214005FFF74CF8002160055A
:1021C000FFF748F810BD2DE9FF4705460E460024ED
:1021D000A14600BFA046B08900B100BF2C8A24F4FC
:1021E0004054F08804432C82AC8941F20C60844353
:1021F000B08831890843718908430443AC81AC8AB3
:1022000024F44074B0890443AC826846FEF7B3FE00
:10221000B548854202D0B948854202D1DDF80C901C
:1022200001E0DDF80890A88900F4004040B109EB16
:10223000C90000EB091031684900B0FBF1F707E075
:1022400009EBC90000EB091031688900B0FBF1F718
:102250006420B7FBF0F004012009642101FB107831
:10226000A88900F4004040B1322000EBC800B0FB68
:10227000F1F000F00700044308E0322000EB081002
:102280006421B0FBF1F000F00F0004432C81BDE8A5
:10229000FF874FF41651016000218180C1800181C8
:1022A0000C21418100218181704710B50246002038
:1022B000108A20F470600B884C8823438C88234359
:1022C000CC8823431843108210BD00210180418037
:1022D0008180C180704721B1828942F4005282819D
:1022E00004E082894DF6FF731A4082817047028BA9
:1022F00002F47F420283028B0A430283704721B1BA
:10230000828942F40042828103E08289C2F30E0294
:102310008281704721B1828A42F40062828204E0A5
:10232000828A4FF2FF731A4082827047C1F308021B
:102330008280704701468888C0F308007047028A8F
:102340004FF6F0731A400282028A0A4302827047F3
:1023500021B1828942F00202828104E082894FF633
:10236000FD731A408281704782894FF2FF731A40D1
:10237000828182890A4382817047028A4FF6DF7325
:102380001A400282028A0A430282704721B1028AFD
:1023900042F48042028204E0028A4BF6FF731A4044
:1023A00002827047818941F001018181704721B12A
:1023B000828A42F00802828204E0828A4FF6F77332
:1023C0001A4082827047028BD2B20283028B42EAA9
:1023D00001220283704721B1828A42F02002828268
:1023E00004E0828A4FF6DF731A408282704721B17F
:1023F000828A42F01002828204E0828A4FF6EF73F2
:102400001A4082827047828A4FF6FB731A4082829A
:10241000828A0A438282704721B1828A42F0020294
:10242000828204E0828A4FF6FD731A4082827047EE
:102430001AB1838A0B43838202E0838A8B438382AF
:102440007047F0B50346002400260025002040F622
:102450006A17B94200D100BF1846C1F3421401F017
:102460001F06012707FA06F5012C01D10C3004E004
:10247000022C01D1103000E014301AB107682F434C
:10248000076002E00768AF430760F0BD0246002026
:10249000B1F5007F00D100BF13880B400BB10120C4
:1024A00000E00020704701F40072B2F5007F00D117
:1024B00000BFCA430280704770B502460024002363
:1024C0000025002040F66A16B14200D100BFC1F3DA
:1024D000421501F01F03012606FA03F3012D13D163
:1024E0009689334017E0000000100140004400408E
:1024F00000480040004C00400050004000140140E3
:1025000000780040007C0040022D02D1168A334042
:1025100001E0968A33400C12012606FA04F416886C
:10252000344013B10CB1012000E0002070BD10B5A3
:102530000022002340F66A14A14200D100BF0A1213
:1025400001249440A3B2DC43048010BD0020414923
:102550000860091D0860091D0860091D08603E48E3
:102560003C4914310860704700213A498279002AB9
:102570003AD00A46126803689A430B461A600A1D4D
:10258000126803689A430B1D1A60027911440A68A5
:1025900003681A430A602F4A0832126803689A4394
:1025A0002C4B08331A601A1D126803689A43294B92
:1025B0000C331A604279102A0ED11A1F1268036870
:1025C0001A43244B08331A601A1D126803681A4311
:1025D000204B0C331A600DE01E49427911440A6801
:1025E00003681A430A6005E0027911440A68036827
:1025F0009A430A6070470021016001710C2141710A
:102600000021817170471349103109680143114A53
:10261000103211607047014600200E4A14321268D1
:102620000A400AB1012000E0002070470949143136
:102630000860704701460020064A143212680A40BA
:102640000AB1012000E000207047024914310860FF
:1026500070470000003C0140FFFF7F0010B50446BA
:102660006FF00400FEF716FAE11704EB5171C1F3A5
:10267000C701394A11701046007800EB4001C1EBE8
:10268000C0104FF6FF7101EAC0003449088010BD48
:102690000146314A12784A434FF0E0235A61002242
:1026A0009A611A46126942F001021A6100BF4FF0A6
:1026B000E022106900F001021AB100F48032002A11
:1026C000F5D04FF0E022126922F001024FF0E02332
:1026D0001A6100229A6170470146204A12884A43D3
:1026E0004FF0E0235A6100229A611A46126942F0C3
:1026F00001021A6100BF4FF0E022106900F00102F0
:102700001AB100F48032002AF5D04FF0E0221269AD
:1027100022F001024FF0E0231A6100229A61704713
:1027200070B504464FF4077094FBF0F0C6B24FF456
:10273000077094FBF0F100FB114085B205E04FF407
:102740000770FFF7C9FF701EC6B2002EF7D115B192
:102750002846FFF7C1FF70BD4C0000204E0000204E
:1027600000BF704700BF4C4A128802F04002002AA6
:10277000F9D0C2B2484B9A80704710B588B0044671
:1027800001210846FEF7C8FC01211020FEF71EFDBE
:10279000072209214148FEF7ACFA07220A213F48E7
:1027A000FEF7A7FA4FF4C060069002208DF81C00D7
:1027B0008DF81D0000208DF81E0001208DF81F00EF
:1027C00006A93648FEF70AFA02940020ADF80C007C
:1027D000ADF80E00ADF81000ADF814000C20ADF807
:1027E000120002A92C48FFF7EEFC01212A48FFF74E
:1027F00072FD012240F225512748FFF722FE2520D5
:102800008DF8040003208DF805008DF806000120E6
:102810008DF8070001A8FEF7F0F808B010BD10B55C
:1028200040F225511C48FFF747FE10B31A48FFF746
:1028300081FDC4B21A48008800F40040C8B91848A5
:10284000008800F4804060B10A2C03D000201449B5
:10285000088020E01248008840F4004010490880B9
:1028600019E00D2C06D10E48008840F480400C4938
:10287000088010E00A480088C0F30D0009490C5494
:1028800007480088401C0649088008460088C72879
:1028900001DD0020088010BD001001400000024052
:1028A000540000208C00002010B504460020FE4992
:1028B0000860FE49C1F8B802204600F051FA012034
:1028C000F949086010BD10B504460020F6490860BB
:1028D0000120F649C1F8B802204600F041FA012073
:1028E000F149086010BD70B505460C462846FFF753
:1028F000DBFFE0B2FFF7E7FF70BD10B5EC49087AE7
:10290000FFF7D2FF10BD10B504460020E64908606D
:102910000120E649C1F8B802201200F021FAE0B225
:1029200000F01EFA0120E049086010BD2DE9F041D9
:1029300004460D4616461F46DD49887AFFF7B4FF68
:102940000020FFF7C0FFDA49897B2144C8B2FFF7B6
:10295000BAFF0020FFF7B7FFD549897B3144C8B2E1
:10296000FFF7B1FFD249087BFFF79EFF0020FFF77A
:10297000AAFFCF49C97B2944C8B2FFF7A4FF0020B2
:10298000FFF7A1FFCA49C97B3944C8B2FFF79BFFD3
:10299000FFF7B3FFBDE8F08170B504460D462B4646
:1029A000224629462046FFF7C1FF70BD70B5044698
:1029B0000D4629462046FFF7EFFFBE480088FFF787
:1029C000A2FF70BD70B50646B9484088401E83B26C
:1029D000B7480088401E82B200210846FFF7A6FFD4
:1029E0000020B14908600120B049C1F8B8020024B4
:1029F0000AE0002503E03046FFF785FF6D1CAC4878
:102A00000088A842F7D8641CA9484088A042F0D8A2
:102A10000120A549086070BD1CB501211020FEF7FA
:102A20007BFB4FF47640009001208DF804000320DA
:102A30008DF8050000208DF8060001208DF80700B4
:102A400069469D48FEF7CAF84FF4006000900020E8
:102A50008DF8040069469848FEF7C0F81CBD10B513
:102A6000002091490C3908606420FFF759FE0120CD
:102A70008E49C1F8B0023220FFF752FE10BD10B5EA
:102A800004462A208A4948812B2088812C200881ED
:102A900034B1012C11D0022C1CD0032C34D126E0EF
:102AA0008020834908804880022088730320C873EF
:102AB000C8213620FFF717FF27E080207C490880D7
:102AC0004880032088730220C873A8213620FFF7AE
:102AD0000AFF1AE080207649088048800220887327
:102AE0000120C87308213620FFF7FDFE0DE080208D
:102AF0006F4908804880012088730220C8736821CC
:102B00003620FFF7F0FE00E000BF00BF10BD10B59B
:102B1000FFF782FFFFF7A3FF1120FFF7C5FE782024
:102B2000FFF7FEFDB120FFF7BFFE0120FFF7CBFE50
:102B30002C20FFF7C8FE2D20FFF7C5FEB220FFF7BF
:102B4000B3FE0120FFF7BFFE2C20FFF7BCFE2D20B7
:102B5000FFF7B9FEB320FFF7A7FE0120FFF7B3FE92
:102B60002C20FFF7B0FE2D20FFF7ADFE0120FFF770
:102B7000AAFE2C20FFF7A7FE2D20FFF7A4FEB4200D
:102B8000FFF792FE0720FFF79EFEC020FFF78CFEA6
:102B9000A220FFF798FE0220FFF795FE8420FFF7A2
:102BA00092FEC120FFF780FEC520FFF78CFEC220F9
:102BB000FFF77AFE0A20FFF786FE0020FFF783FE6C
:102BC000C320FFF771FE8A20FFF77DFE2A20FFF762
:102BD0007AFEC420FFF768FE8A20FFF774FEEE201D
:102BE000FFF771FEC520FFF75FFE0E20FFF76BFEBB
:102BF0003620FFF759FEC820FFF765FEE020FFF7FB
:102C000053FE0F20FFF75FFE1A20FFF75CFE0F2038
:102C1000FFF759FE1820FFF756FE2F20FFF753FE4F
:102C20002820FFF750FE2020FFF74DFE2220FFF75F
:102C30004AFE1F20FFF747FE1B20FFF744FE23201C
:102C4000FFF741FE3720FFF73EFE0020FFF73BFE77
:102C50000720FFF738FE0220FFF735FE1020FFF7B0
:102C600032FEE120FFF720FE0F20FFF72CFE1B2095
:102C7000FFF729FE0F20FFF726FE1720FFF723FEA0
:102C80003320FFF720FE2C20FFF71DFE2920FFF741
:102C90001AFE2E20FFF717FE3020FFF714FE30201B
:102CA000FFF711FE392009E0BC0242420000424217
:102CB000540100205600002000100240FFF703FEE0
:102CC0003F20FFF700FE0020FFF7FDFD0720FFF784
:102CD000FAFD0320FFF7F7FD1020FFF7F4FD2A208F
:102CE000FFF7E2FD0020FFF7EEFD0020FFF7EBFD10
:102CF0000020FFF7E8FD7F20FFF7E5FD2B20FFF721
:102D0000D3FD0020FFF7DFFD0020FFF7DCFD0020F2
:102D1000FFF7D9FD9F20FFF7D6FDF020FFF7C4FD98
:102D20000120FFF7D0FDF620FFF7BEFD0020FFF7E2
:102D3000CAFD3A20FFF7B8FD0520FFF7C4FD2920A2
:102D4000FFF7B2FD0020FFF79AFE0120034908605B
:102D50004FF6FF70FFF736FE10BD0000B40242428E
:102D60000021082115E000F080021AB101220A4B6F
:102D70001A6002E00022084B1A600022064B1B1D5D
:102D80001A600122054BC3F8A8224206100E4A1E03
:102D9000D1B20029E7DC7047A4024242000042425F
:102DA00070B505460E46144631462846FFF7F4FD39
:102DB0002046FFF7A8FD70BD2DE9F05F04460D46E3
:102DC00016461F46301B401C1FFA80FA781B401C19
:102DD0001FFA80FB3B46324629462046FFF7A6FDF8
:102DE0004FF000080FE04FF0000906E00A98FFF7E7
:102DF0008AFD09F101001FFA80F9D145F6DB08F1DF
:102E000001001FFA80F8D845EDDBFE484088401EDF
:102E100083B2FC480088401E82B200210846FFF7BA
:102E200085FDBDE8F09F2DE9FF4F85B081468A46BC
:102E30000020049003900798A0EB09050898A0EBE8
:102E40000A06CDF80890CDF804A0002D01DD012779
:102E500005E00DB9002702E04FF0FF376D42002E6C
:102E600002DD4FF0010806E016B94FF0000802E05D
:102E70004FF0FF387642B54201DD2C4600E0344683
:102E80004FF0000B21E0019A91B2029A90B2FFF745
:102E90008DFD0498284404900398304403900498CE
:102EA000A04205DD0498001B04900298384402906B
:102EB0000398A04205DD0398001B0390019840444D
:102EC00001900BF101001FFA80FB601C8345DADDE5
:102ED00009B0BDE8F08F2DE9F04104460D461646D5
:102EE0001F462B46324629462046FFF79CFF3B46AD
:102EF000224629462046FFF796FF3B463246394692
:102F00002046FFF790FF3B46324629463046FFF702
:102F10008AFFBDE8F081F8B504460D4616461F4607
:102F2000B94800883B463246294600902046FFF7C4
:102F300043FFF8BD2DE9F04104460D4616461F46F5
:102F4000DDF81880EA1991B2A21990B24246FFF753
:102F500027FFEA1991B2A21B90B24246FFF720FF69
:102F6000EA1B91B2A21990B24246FFF719FFEA1B81
:102F700091B2A21B90B24246FFF712FFAA1991B27A
:102F8000E21990B24246FFF70BFFAA1991B2E21B79
:102F900090B24246FFF704FFAA1B91B2E21990B229
:102FA0004246FFF7FDFEAA1B91B2E21B90B24246D9
:102FB000FFF7F6FEBDE8F0812DE9FF4F81B08246B4
:102FC00017469846DDF838B0002445464FEA4800D9
:102FD000C0F10306BBF1000F1FD01BE0A14608E0C3
:102FE0004B462246009750460299FFF7A3FF09F18E
:102FF0000109A945F4DD002E04DA042000FB046079
:10300000861D06E0601B042101FB006000F10A063A
:103010006D1E641CAC42E1DD18E015E02B46224633
:10302000009750460299FFF785FF002E04DA04202E
:1030300000FB0460861D06E0601B042101FB0060AC
:1030400000F10A066D1E641CAC42E7DD05B0BDE868
:10305000F08F2DE9F04704460D4616461F46DDE980
:1030600008893B46324629462046FFF7DCFE4B46A0
:10307000424639463046FFF7D6FE2B4622464946A1
:103080004046FFF7D0FEBDE8F08702880B8803803A
:103090000A8070472DE9FF4F85B000260027BDF854
:1030A0001800BDF82010884207DD08A906A8FFF720
:1030B000ECFF07A905A8FFF7E8FFBDF82000BDF861
:1030C0004C10884207DD08A913A8FFF7DEFF07A907
:1030D00012A8FFF7DAFFBDF81800BDF820108842EB
:1030E00007DD08A906A8FFF7D0FF07A905A8FFF785
:1030F000CCFFBDF81800BDF84C10884238D1BDF89F
:10310000140003900490BDF81C00BDF81010884214
:1031100003DABDF81C00049008E0BDF81C00BDF8FF
:103120000C10884202DDBDF81C000390BDF8480079
:10313000BDF81010884203DABDF84800049008E09A
:10314000BDF84800BDF80C10884202DDBDF848000B
:1031500003902D4800880090BDF81830BDF80C2071
:103160001946BDF81000FFF727FE09B0BDE8F08F43
:10317000BDF81C00BDF81410A0EB010BBDF8200039
:10318000BDF81810401A0290BDF84800BDF81410A0
:10319000451ABDF84C00BDF81810A0EB0109BDF8A8
:1031A0004800BDF81C10A0EB010ABDF84C00BDF8AA
:1031B0002010401A0190BDF82000BDF84C10884244
:1031C00002D1BDF8208004E0BDF82000401E1FFAA7
:1031D00080F8BDF818402CE0029896FBF0F0BDF89E
:1031E0001410084480B2049097FBF9F0BDF8141055
:1031F000084480B203905E442F44BDF81000BDF82F
:103200000C1003E05401002056000020884203DD2A
:1032100003A904A8FFF739FFFE4800882346009061
:10322000BDF80C202146BDF81000FFF7C5FD601C5D
:1032300084B24445D0DDBDF82000201A00FB0AF618
:10324000BDF81800201A00FB05F727E0019896FB4F
:10325000F0F0BDF81C10084480B2049097FBF9F020
:10326000BDF81410084480B2039056442F44BDF8B2
:103270001000BDF80C10884203DD03A904A8FFF775
:1032800004FFE448008823460090BDF80C20214646
:10329000BDF81000FFF790FD601C84B2BDF84C0033
:1032A0008442D3DD00BF60E72DE9FF4F83B0814644
:1032B0008A469346DDE91064D64800880290A6F15C
:1032C0002000C6B204EBD47009EB6000401E82B24D
:1032D0000AEB0400401E83B2514648460194FFF7B2
:1032E00025FB129850BB002525E00C2C07D106EBDE
:1032F0004600C94901EB800010F8058004E0C7488A
:1033000000EB061010F8058000270DE008F0010022
:1033100018B15846FFF7F7FA02E00698FFF7F3FAFC
:103320004FEA6808781CC7B204EBD471B7EB610FA1
:10333000ECDB681CC5B2A542D7DB2DE0002529E0F7
:103340000C2C07D106EB4600B34901EB800010F8C6
:10335000058004E0B14800EB061010F80580002756
:1033600011E0AC48A0F800B008F0010038B10AEB59
:10337000050291B209EB070290B2FFF717FB4FEA83
:103380006808781CC7B204EBD471B7EB610FE8DBB7
:10339000681CC5B2A542D3DB9E4902980880A048AC
:1033A0004088401E83B29E480088401E82B20021A1
:1033B0000846FFF7BBFA07B0BDE8F08F2DE9FE43E2
:1033C00006460F4615461C46DDF828801DE0944849
:1033D0000088401EB04204DB91484088401EB8423D
:1033E00001DABDE8FE8320788DE821018D4803884D
:1033F0008848028839463046FFF756FF284605EBD5
:10340000D07106EB61018EB2641C20787E2802DC4C
:1034100020782028DBDA00BFE3E710B50246012060
:1034200000E050430B1EA1F10104E1B2F9D110BD3F
:103430002DE9FF4F83B0074691461E46109C4FF082
:10344000000A002543E0701B401EC1B20A20FFF7AE
:10345000E4FFB9FBF0F00A21B0FBF1F201FB120826
:10346000BAF1000F1BD1701EA84218DDB8F1000F91
:1034700013D100202021A346CDE90014029004EBD3
:10348000DB71491001FB057188B266490B886149FF
:103490000A880499FFF708FF17E04FF0010A00219E
:1034A00008F13000C0B2A346CDE90141009004EB21
:1034B000DB71491001FB057188B25A490B885549E7
:1034C0000A880499FFF7F0FE00BF681CC5B2B54238
:1034D000B9DB07B0BDE8F08F2DE9FC5F05468846F3
:1034E00091469A46DDF830B000953E2001900024C8
:1034F0005FE004EB04104C4911F810009BF8001039
:10350000884253D104EB0410474901EB4000407856
:103510009BF80110884249D108F10F0083B205F1F0
:103520000F0082B241462846FFF700FA00263BE032
:10353000002734E00D9890B904EB04103A4901EBF0
:103540004000801C805D80213941084018B1484608
:10355000FFF7D9F921E05046FFF7D5F91DE02D48D6
:10356000A0F8009004EB04102F4901EB4000801CF0
:10357000805D80213941084018B141462846FFF757
:1035800015FA681C85B20098281A102805D1009DEC
:1035900008F101001FFA80F803E0781CC7B2082F79
:1035A000C8DB00BF701CC6B2202EC1DB00BF601C90
:1035B00084B2019884429CDB19484088401E83B243
:1035C00017480088401E82B200210846FFF7AEF976
:1035D000BDE8FC9F2DE9FC5F0546884691469A466A
:1035E000DDF830B0009507200190002476E004EB70
:1035F000840000EB44100D4911F810009BF80010F6
:10360000884268D104EB840000EB4410074901EBC9
:1036100040000DE056000020FE4A0008724F0008EE
:103620005401002058000020625500089E5D0008EB
:1036300040789BF8011088424DD108F1170083B201
:1036400005F1170082B241462846FFF76FF90026C0
:103650003FE0002738E00D98A0B904EB840000EBB0
:103660004410E44901EB4000801C805D8021394119
:10367000084018B14846FFF746F923E05046FFF7E7
:1036800042F91FE0DC48A0F8009004EB840000EB56
:103690004410D84901EB4000801C805D80213941F5
:1036A000084018B141462846FFF780F9681C85B2EA
:1036B0000098281A182805D1009D08F101001FFA6A
:1036C00080F803E0781CC7B2082FC4DB00BF701C71
:1036D000C6B2482EBDDB00BF601C84B20198844294
:1036E00085DBC6484088401E83B2C4480088401E1F
:1036F00082B200210846FFF719F9BDE8FC9F2DE9C9
:10370000FC5F0546884691469A46DDF830B0009544
:103710000420019000245FE004EB8410B84911F804
:1037200010009BF80010884253D104EB8410B44978
:1037300001EB400040789BF80110884249D108F124
:103740001F0083B205F11F0082B241462846FFF7F1
:10375000EDF800263BE0002734E00D9890B904EB2B
:103760008410A74901EB4000801C805D8021394115
:10377000084018B14846FFF7C6F821E05046FFF769
:10378000C2F81DE09C48A0F8009004EB84109C490E
:1037900001EB4000801C805D80213941084018B158
:1037A00041462846FFF702F9681C85B20098281A9E
:1037B000202805D1009D08F101001FFA80F803E0E0
:1037C000781CC7B2082FC8DB00BF701CC6B2802EA1
:1037D000C1DB00BF601C84B2019884429CDB874837
:1037E0004088401E83B285480088401E82B2002176
:1037F0000846FFF79BF8BDE8FC9F2DE9FF4F83B01B
:10380000064688469146DDE91147109DB2464FF0C5
:10381000000B71E0BBF1000F40D104EBD471774A8B
:103820001288A2EB6101B14204DB74494988091B8B
:10383000414502DA07B0BDE8F08F2878802802DD24
:103840004FF0010B58E028780D2806D108EB040052
:103850001FFA80F856466D1C1EE0102C0DDD10215D
:1038600028788DE883004A4641463046069BFFF79C
:103870001BFD06F1080086B20EE028788DE8910065
:103880004A4641463046069BFFF70EFD204604EBB4
:10389000D07106EB61018EB26D1C2DE05748008897
:1038A000001BB04204DB55484088001B404500DA4D
:1038B000C0E74FF0000B202C08D1CDE900574A4655
:1038C00041463046069BFFF71AFF12E0182C08D13C
:1038D000CDE900574A4641463046069BFFF77AFE3F
:1038E00007E0CDE900574A4641463046069BFFF7C0
:1038F000F3FDAD1C301986B2287800288AD100BFAC
:1039000098E72DE9FE4F0E4617469846DDE90D9AD9
:103910000C9C204601F099F885B238490988A1EB42
:10392000C50000EBD071C1F34F0B43463A46314618
:1039300058468DE81006FFF760FFBDE8FE8F2DE9C1
:10394000F04706460F46154607F17F0083B206F1A1
:103950007F0082B239463046FEF7E8FF00240AE0D5
:1039600015F8149005EB440090F8018049EA08200E
:10397000FEF7C9FF641CB4F5804FF1DB1F48408897
:10398000401E83B21D480088401E82B200210846B6
:10399000FEF7CCFFBDE8F0872DE9F04706460F465D
:1039A000154607F17F0083B206F17F0082B23946E7
:1039B0003046FEF7BBFF00240AE015F8149005EB33
:1039C000440090F8018049EA0820FEF79CFF641C3F
:1039D000B4F5804FF1DB09484088401E83B20748A8
:1039E0000088401E82B200210846FEF79FFFBDE816
:1039F000F08700009E5D0008560000205401002062
:103A0000A45F00081CB501210846FDF785FBC02016
:103A1000009001208DF8040000208DF8060003209E
:103A20008DF8050001208DF8070069460348FDF771
:103A3000D5F8C0210148FDF74DF91CBD000002403A
:103A40007CB501211F20FDF767FB4FF43C6000901F
:103A500003208DF8050001208DF8070000208DF867
:103A600004006946FE48FDF7B9F8602000906946F9
:103A7000FC48FDF7B3F8402000906946FA48FDF78E
:103A8000ADF84FF4807000906946F848FDF7A6F84D
:103A90003020009000208DF8060001208DF80700EE
:103AA0008DF804006946F148FDF798F880200090F1
:103AB0006946ED48FDF792F84FF4024000906946E0
:103AC000E948FDF78BF800F0C5FA00243220FEF734
:103AD00027FE1C2000F0CBFB04464FF6FF7000EAE7
:103AE00004241D2000F0C3FB04430A2000F0BFFBA8
:103AF00004464FF6FF7000EA04240B2000F0B7FBE9
:103B0000044300250AE0DA4A02EB45025178D84A1C
:103B100012F8150000F08CFB681C85B24D2DF2D315
:103B200000207CBD2DE9F04704460D469146B9F1D1
:103B3000000F2CD0C4F5207000EBD071C1F34F07FB
:103B4000C5F5F07000EBD071C1F34F0806211220CB
:103B500000F06EFB2321172000F06AFBA021182043
:103B600000F066FB0721192000F062FBF0211A200B
:103B700000F05EFB0021322000F05AFBA02129203A
:103B800000F056FBF0212C2000F052FB2BE0C4F596
:103B9000A07000EBD071C1F34F07C5F1F00000EB4E
:103BA000D071C1F34F084621122000F041FB3F21A4
:103BB000172000F03DFB5021182000F039FB0321B5
:103BC000192000F035FB78211A2000F031FB00218C
:103BD000322000F02DFB5021292000F029FB782114
:103BE0002C2000F025FB172000F041FB064606EBD9
:103BF000A70000F0FF0A5146172000F019FBC4F39C
:103C00008701182000F014FB192000F030FB064655
:103C100006EB680000F0FF0A5146192000F008FB8F
:103C2000C5F347011A2000F003FB322000F01FFB10
:103C300006464FEAC870400E07F0030140EA011043
:103C400005F0010140EA810004F00301084340EA65
:103C5000060A5146322000F0EBFAC4F3870129200E
:103C600000F0E6FAC5F347012C2000F0E1FA2A2023
:103C700000F0FDFA04F00300304305F0010140EAD2
:103C8000810A51462A2000F0D3FABDE8F0870EB52C
:103C900001218803FDF79AFA08210020FDF7A1FB16
:103CA0004FF48070019000208DF8080008208DF8F6
:103CB000090001208DF80A0001A8FEF755FC172025
:103CC0008DF8000000208DF801008DF80200012021
:103CD0008DF803006846FCF790FE0EBD10B5044653
:103CE000062C79D2DFE804F003142D465F79FF211A
:103CF000132000F09DFA65210E2000F099FA0021B2
:103D00002D2000F095FA00212E2000F091FA6EE0AF
:103D1000FD21132000F08CFA5A21012000F088FACE
:103D20005C21022000F084FA65210E2000F080FA68
:103D300000212D2000F07CFA00212E2000F078FADE
:103D400055E0FD21132000F073FA5821012000F006
:103D50006FFA6021022000F06BFA65210E2000F05E
:103D600067FA00212D2000F063FA00212E2000F0D8
:103D70005FFA3CE0FD21132000F05AFA8421012073
:103D800000F056FA4C21022000F052FA65210E2074
:103D900000F04EFA00212D2000F04AFA00212E20DA
:103DA00000F046FA23E0FD21132000F041FA9621AD
:103DB000012000F03DFA4021022000F039FA65218F
:103DC0000E2000F035FA00212D2000F031FA0021FC
:103DD0002E2000F02DFA0AE008E0FF21132000F069
:103DE00027FAE5210E2000F023FA00E000BF00BF13
:103DF00010BD2DE9F0410446802522265E2734B10E
:103E0000012C08D0032C0AD0042C10D10BE0402543
:103E100011262F270BE066251B264B2707E0992547
:103E20002826712703E0C02533268D2700BF00BF59
:103E300029464F2000F0FCF92946502000F0F8F9FF
:103E40000021512000F0F4F93146522000F0F0F941
:103E50003946532000F0ECF9294654200AE00000CE
:103E6000000802400010024000040240000002402E
:103E7000AC61000800F0DCF99E21582000F0D8F970
:103E8000BDE8F08170B5064606F10800092821D288
:103E9000DFE800F01D1A1714110E0B080500482466
:103EA000062518E03824062515E02824062512E00A
:103EB000182406250FE0082406250CE008240E250A
:103EC00009E018240E2506E028240E2503E03824F6
:103ED0000E2500E000BF00BF21469B2000F0A8F99E
:103EE0002946AB2000F0A4F970BD10B50446C4F11A
:103EF00004003022A2EB8000C1B29C2000F098F9AF
:103F000010BD10B50446072C58D2DFE804F00411A8
:103F10001E2B384552000621A62000F089F9802189
:103F2000602000F085F98021612000F081F946E0F1
:103F30002621A62000F07CF98021602000F078F98D
:103F40008021612000F074F939E01E21A62000F0E4
:103F50006FF9A021602000F06BF94021612000F092
:103F600067F92CE01E21A62000F062F940216020B4
:103F700000F05EF9A021612000F05AF91FE01E2137
:103F8000A62000F055F98021602000F051F9C021F1
:103F9000612000F04DF912E01E21A62000F048F942
:103FA0006021084600F044F96021612000F040F9EA
:103FB00005E04621A62000F03BF900E000BF00BF6D
:103FC00010BD2DE9F04705460E469046994605EB93
:103FD00048001FFA80FA06EB490087B2B7F5447F24
:103FE00002DDA7F5447087B2032000F040F90446D3
:103FF00004F0F0040AF00301284661F39F00044333
:104000002146032000F014F9C5F38701192000F0C0
:104010000FF9CAF387011A2000F00AF9322000F0E4
:1040200026F9044604F0C00407F00701304661F3A6
:10403000DF0004432146322000F0FAF8C6F3C7013E
:10404000172000F0F5F8C7F3C701182000F0F0F8CA
:10405000BDE8F0871CB501210820FDF75DF8C02000
:10406000009001208DF8040000208DF80600022049
:104070008DF8050001208DF8070069468F48FCF790
:10408000ADFDC0218D48FCF725FE8C48006820F46A
:1040900040408A4908600846006840F48040086053
:1040A0001CBD10B50120864908608649C1F89802F8
:1040B0003220FEF7EDFA0020814908603220FEF739
:1040C000E7FA00207F49C1F8980210BD10B5002022
:1040D0007B4908603220FEF7DBFA01207949C1F8FC
:1040E00098023220FEF7D4FA012075490860322088
:1040F000FEF7CEFA10BD10B53220FEF7C9FA012046
:104100006F4908606F49C1F898023220FEF7C0FA83
:1041100000206B49091F08603220FEF7B9FA002021
:104120006849C1F89C023220FEF7B2FA10BD70B5A2
:10413000044600261BE004F0800018B1012060490D
:10414000086002E000205E4908606006040E32202C
:10415000FEF79EFA01205A49091F08603220FEF737
:1041600097FA00205749C1F89802701CC6B2082E71
:10417000E1DB5248006820F440405049086008469E
:10418000006808603220FEF783FA01204C49091FBD
:1041900008603220FEF77CFA4A48D0F81C0208B1C9
:1041A000012500E0002500204549091F086043481B
:1041B000006820F44040414908600846006840F427
:1041C00080400860284670BD70B500243B480068F8
:1041D00020F4404039490860084600680860082516
:1041E00017E03220FEF754FA01203549091F086014
:1041F0006006040E3348D0F81C0208B1601CC4B23B
:104200003220FEF745FA00202D49091F0860681E7C
:10421000C5B2002DE5DC2948006820F4404027495C
:1042200008600846006840F480400860204670BD81
:1042300070B505460C460026FFF733FF4220FFF716
:1042400076FF00B101266420FEF722FA2846FFF728
:104250006EFF00B101266420FEF71AFA2046FFF730
:1042600066FF00B10126FFF731FF304670BD70B523
:1042700004460025FFF715FF4220FFF758FF642092
:10428000FEF706FA2046FFF752FF6420FEF700FA19
:10429000FFF71CFF6420FEF7FBF9FFF702FF432046
:1042A000FFF745FF6420FEF7F3F9FFF78DFF0546A2
:1042B000FFF721FFFFF70AFF284670BD000C024000
:1042C0009C824142008041427FB504460D46012157
:1042D0000220FCF76AFFADF804500020ADF806009C
:1042E0000294ADF80C0001A91248FDF760F9012213
:1042F00011461048FDF7FCFD01210E48FDF7E0F9DD
:104300001D208DF8000001208DF8010003208DF89C
:10431000020001208DF803006846FCF76EFB7FBDAC
:1043200010B501210348FDF7FAFD01210148FDF711
:1043300007FE10BD0004004078B5048804F47844FA
:1043400024128DF80040048804F4FC64E4108DF815
:1043500001400478E406240E8DF802409DF80040E8
:104360009DF80150AC420BDA9DF801409DF80250D7
:10437000AC4202DA9DF802400DE09DF801400AE0EF
:104380009DF800409DF80250AC4202DA9DF80240D0
:1043900001E09DF8004022469DF800409DF8015044
:1043A000AC420BDD9DF801409DF80250AC4202DDAD
:1043B0009DF802400DE09DF801400AE09DF80040A4
:1043C0009DF80250AC4202DD9DF8024001E09DF8EC
:1043D00000402346D518C5EB05152D01FF2695FB9A
:1043E000F6F404EBD4756910C82903DD4FF6FF74A9
:1043F000048001E00024048078BD0246802000FB98
:104400000120F94B33F810007047F0B506460F460F
:104410001446B9B2B0B2FFF7F0FF054605F4784094
:104420000012207005F4FC60C0106070E806000EF9
:10443000A070F0BD2DE9F04F8046894698F80050F5
:1044400098F8011098F802208D4205DA914201DABD
:10445000924606E08A4604E0954201DA924600E080
:10446000AA4650468D4205DD914201DD924606E0A6
:104470008A4604E0954201DD924600E0AA4657468E
:10448000C31B00EB070BCBEB0B1B4FEA0B1B4FF0D7
:10449000FF0E9BFBFEFA0AEBDA7B4FEA6B0CB8428D
:1044A00002D10024002658E0A84215D1914208DB31
:1044B000A1EB020A0AEB8A0A4FEACA0A9AFBF3F452
:1044C00023E0A1EB020A0AEB8A0A4FEACA0A9AFB26
:1044D000F3FA0AF1F00418E088420AD1A2EB050AC7
:1044E0000AEB8A0A4FEACA0A9AFBF3FA0AF1500465
:1044F0000BE0904209D1A5EB010A0AEB8A0A4FEAC8
:10450000CA0A9AFBF3FA0AF1A004BCF1000F0CD11D
:10451000C3EB031A4FEA0A1A00EB070B40F2FF1E27
:10452000AEEB0B0B9AFBFBF617E0BCF1780F08DC47
:10453000C3EB031A4FEA0A1A00EB070B9AFBFBF6D0
:104540000BE0C3EB031A4FEA0A1A00EB070B40F229
:10455000FF1EAEEB0B0B9AFBFBF6F02C02DD4FF0CF
:10456000F00A05E0002C02DA4FF0000A00E0A24653
:1045700089F800A0F02E02DD4FF0F00A05E0002ED1
:1045800002DA4FF0000A00E0B24689F801A0BCF15F
:10459000F00F02DD4FF0F00A06E0BCF1000F02DA86
:1045A0004FF0000A00E0E24689F802A0BDE8F08F73
:1045B000024610780B78984215DD10784B789842B7
:1045C00011DA50788B7898420DDD5078CB7898428C
:1045D00009DA90780B79984205DD90784B7998420A
:1045E00001DA012070470020FCE72DE9FF4F83B07E
:1045F00092461F464FF0000B0321DAF80800B0FB8B
:10460000F1F4DAF80C00B0FBF1F5D7F8088041E0DE
:10461000D7F800903AE04FF0000B002622E0A642C7
:1046200007D208EB550109EB060002AAFFF7EDFEE1
:1046300007E0321B02EB080109EB540002AAFFF766
:10464000E4FE01A902A8FFF7F5FE514601A8FFF715
:10465000AFFF08B90BF1010B6019BBEBD00F00D90C
:1046600003E0761C6019B042D9D800BF6019B0428F
:104670000BD109EB54010398016008EB5501049834
:104680000160012007B0BDE8F08FA144786848457B
:10469000C1D8A844F8684045BAD80020F2E72DE90F
:1046A000FF4F83B015461F460026039C16E002AA62
:1046B00020460499FFF7A9FE01A902A8FFF7BAFE58
:1046C000294601A8FFF774FF00B9761C2969A8687C
:1046D0000844B6EB501F00D902E0641E002CE6D15E
:1046E00000BFA0460026039C16E002AA20460499BB
:1046F000FFF78BFE01A902A8FFF79CFE294601A83F
:10470000FFF756FF00B9761C2969A8680844B6EB84
:10471000501F00D902E0641C802CE6D300BFA146E4
:104720000026049C16E002AA21460398FFF76DFEBE
:1047300001A902A8FFF77EFE294601A8FFF738FF6E
:1047400000B9761C6969E8680844B6EB501F00D9C7
:1047500002E0641E002CE6D100BFA2460026049CA5
:1047600016E002AA21460398FFF74FFE01A902A80E
:10477000FFF760FE294601A8FFF71AFF00B9761C73
:104780006969E8680844B6EB501F00D902E0641C70
:10479000802CE6D300BFA346002608EB09004008A2
:1047A00038600AEB0B0040087860A9EB0800B8609D
:1047B000ABEB0A00F860A9EB0800A968884215D99C
:1047C000ABEB0A00E968884210D9A9EB0800296917
:1047D00088420BD2ABEB0A006969884206D20120FD
:1047E00007B0BDE8F08F0000640100200020F7E76B
:1047F0007FB506460C4635480068F8B9344B32465A
:1048000034493548FFF7F1FE18B101202F490860FF
:1048100014E000202E490860802048600020886055
:104820008020C8600B4632462A492B48FFF7DDFE40
:1048300020B100202549086004B070BD26480068FA
:104840000090244800680190002506E06B4632463F
:10485000DDE90001FFF723FF6D1C052DF6D36B4644
:104860003246DDE90001FFF71AFF50B31A490098FC
:1048700008601849019808600098206001986060FD
:104880000298A0600398E060012010490860029936
:104890000098A0EB51000E4908600299009800EBC7
:1048A00051000B49486003990198A0EB5100084959
:1048B00088600399019800EB51000549C860012008
:1048C000BAE700200149086000BFB5E76400002096
:1048D00068000020600000205C00002030B58BB034
:1048E00004460D4601214020FCF75FFC0121022017
:1048F000FCF712FC09220E211E48FCF7FAF94FF4CE
:104900008040099002208DF8280003208DF82900AE
:1049100000208DF82A0001208DF82B0009A91548E8
:10492000FCF75CF9A8B2ADF818000020ADF81A0049
:104930000794ADF8200006A90F48FCF738FE602068
:10494000ADF804000120ADF806000020ADF810001D
:1049500001A90948FCF7C0FE08210748FDF749F8FE
:1049600001210548FCF78EFE01210348FCF7A8FE53
:104970000BB030BD00040240001800401CB50121FE
:104980001020FCF7C9FB1820009000208DF80400CF
:1049900003208DF8050001208DF80700694627489F
:1049A000FCF71CF91CBD10B5044614B101202449C4
:1049B00008702348007858B310212048FCF770F99C
:1049C00050B108211D48FCF76BF928B101211D48A1
:1049D000FCF766F901281BD10A20FDF7A1FE002093
:1049E0001749087010211548FCF75AF908B9012039
:1049F00010BD08211148FCF753F908B90220F7E768
:104A000001211048FCF74CF9012815D10320EFE7EC
:104A100010210A48FCF744F901280DD10821074864
:104A2000FCF73EF9012807D101210648FCF738F9C7
:104A300010B90120024908700020D9E70010024097
:104A40007800002000000240704710B5431C02E0CF
:104A500010F8011B71B18107FAD14FF0013202C881
:104A60008C1A8C4314EAC211F9D0C01A0A0603D07A
:104A7000C01E10BDC01A10BD0A0401D0801E10BD9A
:104A80000902FCD0401E10BD704770477047704748
:104A9000754600F02BF8AE4605006946534620F0F7
:104AA0000700854618B020B5FBF790FFBDE8204011
:104AB0004FF000064FF000074FF000084FF0000BDA
:104AC00021F00701AC46ACE8C009ACE8C009ACE88D
:104AD000C009ACE8C0098D46704710B50446AFF375
:104AE00000802046BDE81040FBF797BB00487047A8
:104AF000648100204FF04070E1EE100A7047000022
:104B00000000000000000000000000000404040495
:104B100004040004000000140A0A00000000000061
:104B20000000000014143F140A3F0A0A00000004A9
:104B30001E1505060C14150F0400000012150D0AB1
:104B4000142C2A1200000000040A0A1E151509364A
:104B50000000000202010000000000000000002030
:104B600010080808080808102000000204080808B7
:104B700008080804020000000004150E0E150400C9
:104B8000000000000404041F0404040000000000EE
:104B90000000000000000002020100000000001FF1
:104BA0000000000000000000000000000000000203
:104BB00000000010080808040402020201000000BE
:104BC0000E1111111111110E000000000406040451
:104BD0000404040E000000000E1111080402011F5D
:104BE000000000000E11100C1010110E000000004B
:104BF000080C0A0A091E0818000000001F01010F16
:104C00001010110E000000000E09010F1111110EFD
:104C1000000000001F090804040404040000000050
:104C20000E11110E1111110E000000000E111111C4
:104C30001E10120E0000000000000400000000041E
:104C40000000000000000004000000040400002038
:104C500010080402040810200000000000001F00DB
:104C6000001F0000000000020408102010080402C9
:104C7000000000000E1111080404000400000000F0
:104C80000E111915151D011E0000000004040C0A68
:104C90000A1E1233000000000F12120E1212120F21
:104CA000000000001E1101010101110E00000000B2
:104CB0000F1212121212120F000000001F120A0E21
:104CC0000A02121F000000001F120A0E0A02020749
:104CD000000000001C1201013911120C000000003C
:104CE0003312121E12121233000000001F040404BB
:104CF0000404041F000000003E0808080808080912
:104D00000700000037120A060A0A123700000000E6
:104D1000070202020202223F000000001B1B1B1BB5
:104D200015151515000000003B1216161A1A121759
:104D3000000000000E1111111111110E00000000F1
:104D40000F12120E02020207000000000E111111D4
:104D50001117190E180000000F12120E0A12123746
:104D6000000000001E1101060810110F00000000D5
:104D70001F1504040404040E000000003312121274
:104D80001212120C000000003312120A0A0C040462
:104D9000000000001515150E0A0A0A0A000000009E
:104DA0001B0A0A04040A0A1B000000001B0A0A046A
:104DB0000404040E000000001F0908040402121F6E
:104DC0000000001C04040404040404041C00000289
:104DD00002020404080808100000000E0808080871
:104DE000080808080E0000040A0000000000000087
:104DF000000000000000000000000000003F000470
:104E00000000000000000000000000000000000C96
:104E1000121C123C000000000302020E1212120EBD
:104E2000000000000000001C1202021C0000000034
:104E30001810101C1212123C000000000000000CA0
:104E4000121E021C000000003804041E0404041E8C
:104E5000000000000000003C120C021E221C00009A
:104E60000302020E121212370000000004000006B6
:104E70000404040E000000000800000C08080808E4
:104E8000080700000302023A0A0E12370000000071
:104E9000070404040404041F000000000000000FC5
:104EA00015151515000000000000000F1212123732
:104EB000000000000000000C1212120C00000000A4
:104EC0000000000F1212120E020700000000001C6A
:104ED0001212121C103800000000001B060202070C
:104EE000000000000000001E020C101E0000000068
:104EF0000004040E04040418000000000000001B5D
:104F00001212123C0000000000000037120A0C04CC
:104F10000000000000000015150E0A0A0000000045
:104F20000000001B0A040A1B0000000000000037FC
:104F3000120A0C04040300000000001E0804041EF2
:104F400000000018080808040808080818000808E5
:104F500008080808080808080808000604040408E7
:104F600004040404060002251800000000000000EC
:104F70000000000000000000000000000000000031
:104F800000000000000808080808080800001818B9
:104F9000000000486C241200000000000000000027
:104FA00000000000002424247F1212127F1212122B
:104FB00000000000081C2A2A0A0C1828282A2A1C8B
:104FC000080800000022251515152A5854545422AB
:104FD00000000000000C1212120A76252911916EB1
:104FE00000000006060403000000000000000000AE
:104FF00000000040201010080808080808101020C1
:1050000040000002040808101010101010080804D6
:1050100002000000000008086B1C1C6B0808000060
:10502000000000000000080808087F0808080800C1
:105030000000000000000000000000000000060664
:1050400004030000000000000000FE00000000005B
:105050000000000000000000000000000000060644
:1050600000000000804040202010100808040402C6
:1050700002000000001824424242424242422418E8
:105080000000000000080E08080808080808083E8C
:1050900000000000003C4242422020100804427EF2
:1050A00000000000003C4242201820404042221CE8
:1050B0000000000000203028242422227E202078B6
:1050C00000000000007E0202021A26404042221C1C
:1050D0000000000000382402021A2642424224182E
:1050E00000000000007E22221010080808080808AE
:1050F00000000000003C4242422418244242423C4C
:105100000000000000182442424264584040241C21
:10511000000000000000000018180000000018182F
:10512000000000000000000000080000000000086F
:105130000804000000402010080402040810204069
:1051400000000000000000007F0000007F00000061
:105150000000000000020408102040201008040293
:1051600000000000003C4242464020101000181889
:1051700000000000001C225A555555552D42221C96
:1051800000000000000808181414243C224242E7E2
:1051900000000000001F2222221E22424242221F43
:1051A00000000000007C4242010101010142221C7A
:1051B00000000000001F2242424242424242221F9F
:1051C00000000000003F4212121E12120242423F33
:1051D00000000000003F4212121E121202020207DB
:1051E00000000000003C2222010101712122221C4A
:1051F0000000000000E7424242427E42424242E753
:1052000000000000003E0808080808080808083EDA
:1052100000000000007C1010101010101010101072
:10522000110F0000007722120A0E0A1212222277B2
:105230000000000000070202020202020202427F96
:10524000000000000077363636362A2A2A2A2A6BD2
:105250000000000000E346464A4A5252526262474A
:1052600000000000001C2241414141414141221CFB
:1052700000000000003F424242423E02020202079A
:1052800000000000001C2241414141414D53321CAD
:1052900060000000003F4242423E1212222242C7FA
:1052A00000000000007C4242020418204042423EBE
:1052B00000000000007F4908080808080808081CCA
:1052C0000000000000E74242424242424242423C69
:1052D0000000000000E742422224241414180808A9
:1052E00000000000006B49494949555536222222E9
:1052F0000000000000E7422424181818242442E784
:105300000000000000772222141408080808081C76
:1053100000000000007E2120101008040442423FDB
:1053200000000078080808080808080808080808A5
:105330007800000002020404080808101020202051
:105340004040001E101010101010101010101010FF
:105350001E000038440000000000000000000000B3
:10536000000000000000000000000000000000003D
:1053700000FF000608000000000000000000000020
:105380000000000000000000003C4278444242FC63
:105390000000000000030202021A26424242261ABE
:1053A00000000000000000000038440202024438FF
:1053B000000000000060404040784442424264D80F
:1053C0000000000000000000003C427E0202423C5F
:1053D0000000000000F08808087E08080808083E61
:1053E0000000000000000000007C22221C023C4261
:1053F000423C000000030202023A4642424242E7B7
:1054000000000000000C0C00000E08080808083E10
:105410000000000000303000003820202020202034
:10542000221E0000000302020272120A16122277E4
:1054300000000000000E0808080808080808083ED8
:105440000000000000000000007F9292929292B74C
:105450000000000000000000003B4642424242E7DC
:105460000000000000000000003C42424242423C7A
:105470000000000000000000001B26424242221EE5
:1054800002070000000000000078444242424478D5
:1054900040E000000000000000774C040404041FFA
:1054A0000000000000000000007C42023C40423E40
:1054B0000000000000000008083E08080808083046
:1054C000000000000000000000634242424262DC33
:1054D000000000000000000000E742242414080837
:1054E000000000000000000000EB49495555222251
:1054F0000000000000000000007624181818246E38
:10550000000000000000000000E7422424141808F6
:105510000807000000000000007E22100808447EFA
:10552000000000C02020202020102020202020204B
:10553000C0001010101010101010101010101010CB
:1055400010100006080808080810080808080808CD
:1055500006000C32C2000000000000000000000045
:105560000000C9EE000027FC140414A481104208B6
:105570004040104017FC2040E0E0215022482C46DB
:1055800020400040DBDA11041124112411241124DD
:10559000FD24112411241124112411241D24E1249B
:1055A000422402040404CAD00200010000007FFC6F
:1055B0000100010001003FF821082108210821080D
:1055C0002128211001000100C8AB0000000001806B
:1055D00002400430180860061FF9010001000100B4
:1055E0003FF80100010001007FFEB6AF000000009F
:1055F00000203E20007C002200227F221022102268
:1056000012221222224223423D82009CB5E7000072
:10561000010001001FF0610C410441047FFC4104C2
:10562000410441047FFC01000102010201FCD7D3C7
:10563000000000003FF800100060008001000080C2
:105640007FFE00400040002000200020184007801E
:10565000BCBC10201020102013FEFC2010201020B5
:1056600015FC18843088D0481050102010505188F4
:105670002606CAF501000120011001107FFC0380FD
:105680000540054009201110210841048102010054
:1056900001000100D3D002000200FFFE040004005C
:1056A0000FF0081018102FF0481088100FF0081095
:1056B000081008500820CFDE00007BF84A08520886
:1056C00053F8620852084BF84A444A486A3052205C
:1056D0004210428843064200B9AB00800480048037
:1056E00008400840102020104208820604000440B0
:1056F000082010203FF010100000CBBE00003FF843
:10570000000800087FE8000800081F88108810883B
:10571000108810881F88108800280010BBB60080F1
:105720000080FC8004FC050449082A401440104015
:1057300028A024A045108110020804040802D3AD5B
:1057400000002080133C122402240224F22412249C
:10575000122412B4132812201020282047FE000023
:10576000C4FA0900090011FC320454489950114848
:10577000124414441140108002005104511290123E
:105780000FF0B4BF00000020102013FE20202624BC
:105790004A247A241224222423FC7C20002204227E
:1057A0007822003CC9AB0000000004000FF010207C
:1057B00020207FFC20842084208420843FF8200047
:1057C000200220021FFECCEE00000000204023FE3D
:1057D000204079FC220423FC220423FC220423FC25
:1057E0003A0465FA01980204B3E4000001000100E4
:1057F0007FFE02200410040808043FFC0442044019
:105800000440044208421042607EBED800000000FE
:10581000207E3E804880488048FE48827F82088201
:105820000C8214FA12842280218040FED0CE000027
:1058300000007F842208223022C0220222047FC876
:10584000223022C222022204220822304040BBAD74
:10585000000000007FFE00000FF011101110111069
:1058600051125FF25112511251124FF240027FFC5D
:10587000D4B2000000007FFE47E24812481247E21F
:105880004FF2501250125112511242924472580A61
:105890003FFCCDBC000000003FFE440247F24C221A
:1058A0005362408243625E1A41824062430240C2B8
:1058B00040223FFCC6AC0000004020402040204079
:1058C0003FFE2000200020003FE02010201020108C
:1058D000201040104010CFD4000000003FFC2004F6
:1058E00020043FFC200420041FF8244414481448DA
:1058F00014480C5004407FFECABE000000003FFC6C
:105900000000000000007FFE0080089008881088DA
:1059100010842084208240820780B2CB00000020C7
:1059200008207FFE002000783F8811080890092099
:105930007FFE018003400D30310C4002B5A5000010
:105940000010081004203FF8210421043FFC21042A
:1059500021043FF801007FFE010001000100D6D0C4
:1059600000000100010001003FFC2104210421048A
:105970002104210421043FFC010001000100010079
:10598000D3A20000000008207FFE082009200100AB
:105990003FF82108210821081FF4014002200C10C3
:1059A000700ECEC400000100010000803F7C081092
:1059B00008100410042002200240018001800260CF
:1059C0001C18E006D7DB00000000102011FE2202A8
:1059D000220249FC5800300013FE252879240124B6
:1059E0000D24722202A2BACF000000000180024002
:1059F0000430180860061FF800001FF82004200477
:105A00002004200420041FF8C1C10000010001008F
:105A10007FFE00003FF820083FF83FF8400647C2ED
:105A20004824082008221022603EB6C8000000006A
:105A300000803FFE44105FFC4410441043F04000DF
:105A40005FF84408423041C04360BC1EB2E200002F
:105A5000000067C2145205520552C5522552055224
:105A6000055215521752228222424442483ECAD45D
:105A7000000000002014101417FE00120010601027
:105A800013F0109010901090149214EA1F0A000660
:105A9000B3CC0000000019FE7202120212027DFC5B
:105AA00018001BFE3420502053FE10201020102020
:105AB00013FED0F20000000000803FFE400047FCD3
:105AC0004208413040C05FFE4042404240444048AE
:105AD00040404440B5F70000000023FE122202FAC5
